{
  "_format": "hh-sol-artifact-1",
  "contractName": "ClassFactory",
  "sourceName": "contracts/ClassFactory.sol",
  "abi": [
    {
      "inputs": [],
      "stateMutability": "nonpayable",
      "type": "constructor"
    },
    {
      "inputs": [
        {
          "internalType": "address",
          "name": "owner",
          "type": "address"
        }
      ],
      "name": "OwnableInvalidOwner",
      "type": "error"
    },
    {
      "inputs": [
        {
          "internalType": "address",
          "name": "account",
          "type": "address"
        }
      ],
      "name": "OwnableUnauthorizedAccount",
      "type": "error"
    },
    {
      "anonymous": false,
      "inputs": [
        {
          "indexed": false,
          "internalType": "address",
          "name": "classAddress",
          "type": "address"
        }
      ],
      "name": "ClassCreated",
      "type": "event"
    },
    {
      "anonymous": false,
      "inputs": [
        {
          "indexed": true,
          "internalType": "address",
          "name": "previousOwner",
          "type": "address"
        },
        {
          "indexed": true,
          "internalType": "address",
          "name": "newOwner",
          "type": "address"
        }
      ],
      "name": "OwnershipTransferred",
      "type": "event"
    },
    {
      "anonymous": false,
      "inputs": [
        {
          "indexed": false,
          "internalType": "address",
          "name": "quizAddress",
          "type": "address"
        },
        {
          "indexed": false,
          "internalType": "address",
          "name": "classAddress",
          "type": "address"
        }
      ],
      "name": "QuizLinked",
      "type": "event"
    },
    {
      "inputs": [
        {
          "internalType": "address",
          "name": "",
          "type": "address"
        },
        {
          "internalType": "uint256",
          "name": "",
          "type": "uint256"
        }
      ],
      "name": "classQuizzes",
      "outputs": [
        {
          "internalType": "address",
          "name": "",
          "type": "address"
        }
      ],
      "stateMutability": "view",
      "type": "function"
    },
    {
      "inputs": [
        {
          "internalType": "uint256",
          "name": "",
          "type": "uint256"
        }
      ],
      "name": "classes",
      "outputs": [
        {
          "internalType": "address",
          "name": "classAddress",
          "type": "address"
        },
        {
          "internalType": "string",
          "name": "name",
          "type": "string"
        },
        {
          "internalType": "string",
          "name": "symbol",
          "type": "string"
        }
      ],
      "stateMutability": "view",
      "type": "function"
    },
    {
      "inputs": [
        {
          "internalType": "string",
          "name": "name",
          "type": "string"
        },
        {
          "internalType": "string",
          "name": "symbol",
          "type": "string"
        }
      ],
      "name": "createClass",
      "outputs": [],
      "stateMutability": "nonpayable",
      "type": "function"
    },
    {
      "inputs": [
        {
          "internalType": "address",
          "name": "classAddress",
          "type": "address"
        }
      ],
      "name": "getClassQuizzes",
      "outputs": [
        {
          "internalType": "address[]",
          "name": "",
          "type": "address[]"
        }
      ],
      "stateMutability": "view",
      "type": "function"
    },
    {
      "inputs": [],
      "name": "getClasses",
      "outputs": [
        {
          "components": [
            {
              "internalType": "address",
              "name": "classAddress",
              "type": "address"
            },
            {
              "internalType": "string",
              "name": "name",
              "type": "string"
            },
            {
              "internalType": "string",
              "name": "symbol",
              "type": "string"
            }
          ],
          "internalType": "struct ClassFactory.ClassInfo[]",
          "name": "",
          "type": "tuple[]"
        }
      ],
      "stateMutability": "view",
      "type": "function"
    },
    {
      "inputs": [
        {
          "internalType": "address",
          "name": "student",
          "type": "address"
        }
      ],
      "name": "getEligibleClasses",
      "outputs": [
        {
          "components": [
            {
              "internalType": "address",
              "name": "classAddress",
              "type": "address"
            },
            {
              "internalType": "string",
              "name": "name",
              "type": "string"
            },
            {
              "internalType": "string",
              "name": "symbol",
              "type": "string"
            }
          ],
          "internalType": "struct ClassFactory.ClassInfo[]",
          "name": "",
          "type": "tuple[]"
        }
      ],
      "stateMutability": "view",
      "type": "function"
    },
    {
      "inputs": [
        {
          "internalType": "address",
          "name": "classAddress",
          "type": "address"
        },
        {
          "internalType": "address",
          "name": "quizAddress",
          "type": "address"
        }
      ],
      "name": "linkQuizToClass",
      "outputs": [],
      "stateMutability": "nonpayable",
      "type": "function"
    },
    {
      "inputs": [],
      "name": "owner",
      "outputs": [
        {
          "internalType": "address",
          "name": "",
          "type": "address"
        }
      ],
      "stateMutability": "view",
      "type": "function"
    },
    {
      "inputs": [],
      "name": "renounceOwnership",
      "outputs": [],
      "stateMutability": "nonpayable",
      "type": "function"
    },
    {
      "inputs": [
        {
          "internalType": "address",
          "name": "newOwner",
          "type": "address"
        }
      ],
      "name": "transferOwnership",
      "outputs": [],
      "stateMutability": "nonpayable",
      "type": "function"
    }
  ],
  "bytecode": "0x608060405234801561001057600080fd5b5033600073ffffffffffffffffffffffffffffffffffffffff168173ffffffffffffffffffffffffffffffffffffffff16036100845760006040517f1e4fbdf700000000000000000000000000000000000000000000000000000000815260040161007b919061019e565b60405180910390fd5b6100938161009960201b60201c565b506101b9565b60008060009054906101000a900473ffffffffffffffffffffffffffffffffffffffff169050816000806101000a81548173ffffffffffffffffffffffffffffffffffffffff021916908373ffffffffffffffffffffffffffffffffffffffff1602179055508173ffffffffffffffffffffffffffffffffffffffff168173ffffffffffffffffffffffffffffffffffffffff167f8be0079c531659141344cd1fd0a4f28419497f9722a3daafe3b4186f6b6457e060405160405180910390a35050565b600073ffffffffffffffffffffffffffffffffffffffff82169050919050565b60006101888261015d565b9050919050565b6101988161017d565b82525050565b60006020820190506101b3600083018461018f565b92915050565b61585d806101c86000396000f3fe608060405234801561001057600080fd5b506004361061007d5760003560e01c8063817dbe9f1161005b578063817dbe9f146100c65780638da5cb5b146100f8578063a7627bc414610116578063f2fde38b146101465761007d565b80630193a955146100825780633a0febad146100a0578063715018a6146100bc575b600080fd5b61008a610162565b6040516100979190610d61565b60405180910390f35b6100ba60048036038101906100b59190610ecc565b61033b565b005b6100c461048c565b005b6100e060048036038101906100db9190610f7a565b6104a0565b6040516100ef93929190611000565b60405180910390f35b61010061060a565b60405161010d9190611045565b60405180910390f35b610130600480360381019061012b919061108c565b610633565b60405161013d9190610d61565b60405180910390f35b610160600480360381019061015b919061108c565b61095a565b005b60606001805480602002602001604051908101604052809291908181526020016000905b8282101561033257838290600052602060002090600302016040518060600160405290816000820160009054906101000a900473ffffffffffffffffffffffffffffffffffffffff1673ffffffffffffffffffffffffffffffffffffffff1673ffffffffffffffffffffffffffffffffffffffff16815260200160018201805461020f906110e8565b80601f016020809104026020016040519081016040528092919081815260200182805461023b906110e8565b80156102885780601f1061025d57610100808354040283529160200191610288565b820191906000526020600020905b81548152906001019060200180831161026b57829003601f168201915b505050505081526020016002820180546102a1906110e8565b80601f01602080910402602001604051908101604052809291908181526020018280546102cd906110e8565b801561031a5780601f106102ef5761010080835404028352916020019161031a565b820191906000526020600020905b8154815290600101906020018083116102fd57829003601f168201915b50505050508152505081526020019060010190610186565b50505050905090565b6103436109e0565b600082823360405161035490610b33565b61036093929190611119565b604051809103906000f08015801561037c573d6000803e3d6000fd5b509050600160405180606001604052808373ffffffffffffffffffffffffffffffffffffffff16815260200185815260200184815250908060018154018082558091505060019003906000526020600020906003020160009091909190915060008201518160000160006101000a81548173ffffffffffffffffffffffffffffffffffffffff021916908373ffffffffffffffffffffffffffffffffffffffff1602179055506020820151816001019081610437919061130a565b50604082015181600201908161044d919061130a565b5050507fd91633b09bf6bfa6692816acbe6b6e96ea8b00bb856d3593f047cef4806654c18160405161047f9190611045565b60405180910390a1505050565b6104946109e0565b61049e6000610a67565b565b600181815481106104b057600080fd5b90600052602060002090600302016000915090508060000160009054906101000a900473ffffffffffffffffffffffffffffffffffffffff16908060010180546104f9906110e8565b80601f0160208091040260200160405190810160405280929190818152602001828054610525906110e8565b80156105725780601f1061054757610100808354040283529160200191610572565b820191906000526020600020905b81548152906001019060200180831161055557829003601f168201915b505050505090806002018054610587906110e8565b80601f01602080910402602001604051908101604052809291908181526020018280546105b3906110e8565b80156106005780601f106105d557610100808354040283529160200191610600565b820191906000526020600020905b8154815290600101906020018083116105e357829003601f168201915b5050505050905083565b60008060009054906101000a900473ffffffffffffffffffffffffffffffffffffffff16905090565b60606000600180549050905060008167ffffffffffffffff81111561065b5761065a610da1565b5b60405190808252806020026020018201604052801561069457816020015b610681610b40565b8152602001906001900390816106795790505b5090506000805b8381101561094b576000600182815481106106b9576106b86113dc565b5b906000526020600020906003020160000160009054906101000a900473ffffffffffffffffffffffffffffffffffffffff1673ffffffffffffffffffffffffffffffffffffffff166370a08231886040518263ffffffff1660e01b81526004016107239190611045565b602060405180830381865afa158015610740573d6000803e3d6000fd5b505050506040513d601f19601f820116820180604052508101906107649190611420565b111561093e576001818154811061077e5761077d6113dc565b5b90600052602060002090600302016040518060600160405290816000820160009054906101000a900473ffffffffffffffffffffffffffffffffffffffff1673ffffffffffffffffffffffffffffffffffffffff1673ffffffffffffffffffffffffffffffffffffffff1681526020016001820180546107fd906110e8565b80601f0160208091040260200160405190810160405280929190818152602001828054610829906110e8565b80156108765780601f1061084b57610100808354040283529160200191610876565b820191906000526020600020905b81548152906001019060200180831161085957829003601f168201915b5050505050815260200160028201805461088f906110e8565b80601f01602080910402602001604051908101604052809291908181526020018280546108bb906110e8565b80156109085780601f106108dd57610100808354040283529160200191610908565b820191906000526020600020905b8154815290600101906020018083116108eb57829003601f168201915b505050505081525050838381518110610924576109236113dc565b5b6020026020010181905250818061093a9061147c565b9250505b808060010191505061069b565b50808252819350505050919050565b6109626109e0565b600073ffffffffffffffffffffffffffffffffffffffff168173ffffffffffffffffffffffffffffffffffffffff16036109d45760006040517f1e4fbdf70000000000000000000000000000000000000000000000000000000081526004016109cb9190611045565b60405180910390fd5b6109dd81610a67565b50565b6109e8610b2b565b73ffffffffffffffffffffffffffffffffffffffff16610a0661060a565b73ffffffffffffffffffffffffffffffffffffffff1614610a6557610a29610b2b565b6040517f118cdaa7000000000000000000000000000000000000000000000000000000008152600401610a5c9190611045565b60405180910390fd5b565b60008060009054906101000a900473ffffffffffffffffffffffffffffffffffffffff169050816000806101000a81548173ffffffffffffffffffffffffffffffffffffffff021916908373ffffffffffffffffffffffffffffffffffffffff1602179055508173ffffffffffffffffffffffffffffffffffffffff168173ffffffffffffffffffffffffffffffffffffffff167f8be0079c531659141344cd1fd0a4f28419497f9722a3daafe3b4186f6b6457e060405160405180910390a35050565b600033905090565b614363806114c583390190565b6040518060600160405280600073ffffffffffffffffffffffffffffffffffffffff16815260200160608152602001606081525090565b600081519050919050565b600082825260208201905092915050565b6000819050602082019050919050565b600073ffffffffffffffffffffffffffffffffffffffff82169050919050565b6000610bce82610ba3565b9050919050565b610bde81610bc3565b82525050565b600081519050919050565b600082825260208201905092915050565b60005b83811015610c1e578082015181840152602081019050610c03565b60008484015250505050565b6000601f19601f8301169050919050565b6000610c4682610be4565b610c508185610bef565b9350610c60818560208601610c00565b610c6981610c2a565b840191505092915050565b6000606083016000830151610c8c6000860182610bd5565b5060208301518482036020860152610ca48282610c3b565b91505060408301518482036040860152610cbe8282610c3b565b9150508091505092915050565b6000610cd78383610c74565b905092915050565b6000602082019050919050565b6000610cf782610b77565b610d018185610b82565b935083602082028501610d1385610b93565b8060005b85811015610d4f5784840389528151610d308582610ccb565b9450610d3b83610cdf565b925060208a01995050600181019050610d17565b50829750879550505050505092915050565b60006020820190508181036000830152610d7b8184610cec565b905092915050565b6000604051905090565b600080fd5b600080fd5b600080fd5b600080fd5b7f4e487b7100000000000000000000000000000000000000000000000000000000600052604160045260246000fd5b610dd982610c2a565b810181811067ffffffffffffffff82111715610df857610df7610da1565b5b80604052505050565b6000610e0b610d83565b9050610e178282610dd0565b919050565b600067ffffffffffffffff821115610e3757610e36610da1565b5b610e4082610c2a565b9050602081019050919050565b82818337600083830152505050565b6000610e6f610e6a84610e1c565b610e01565b905082815260208101848484011115610e8b57610e8a610d9c565b5b610e96848285610e4d565b509392505050565b600082601f830112610eb357610eb2610d97565b5b8135610ec3848260208601610e5c565b91505092915050565b60008060408385031215610ee357610ee2610d8d565b5b600083013567ffffffffffffffff811115610f0157610f00610d92565b5b610f0d85828601610e9e565b925050602083013567ffffffffffffffff811115610f2e57610f2d610d92565b5b610f3a85828601610e9e565b9150509250929050565b6000819050919050565b610f5781610f44565b8114610f6257600080fd5b50565b600081359050610f7481610f4e565b92915050565b600060208284031215610f9057610f8f610d8d565b5b6000610f9e84828501610f65565b91505092915050565b610fb081610bc3565b82525050565b600082825260208201905092915050565b6000610fd282610be4565b610fdc8185610fb6565b9350610fec818560208601610c00565b610ff581610c2a565b840191505092915050565b60006060820190506110156000830186610fa7565b81810360208301526110278185610fc7565b9050818103604083015261103b8184610fc7565b9050949350505050565b600060208201905061105a6000830184610fa7565b92915050565b61106981610bc3565b811461107457600080fd5b50565b60008135905061108681611060565b92915050565b6000602082840312156110a2576110a1610d8d565b5b60006110b084828501611077565b91505092915050565b7f4e487b7100000000000000000000000000000000000000000000000000000000600052602260045260246000fd5b6000600282049050600182168061110057607f821691505b602082108103611113576111126110b9565b5b50919050565b600060608201905081810360008301526111338186610fc7565b905081810360208301526111478185610fc7565b90506111566040830184610fa7565b949350505050565b60008190508160005260206000209050919050565b60006020601f8301049050919050565b600082821b905092915050565b6000600883026111c07fffffffffffffffffffffffffffffffffffffffffffffffffffffffffffffffff82611183565b6111ca8683611183565b95508019841693508086168417925050509392505050565b6000819050919050565b60006112076112026111fd84610f44565b6111e2565b610f44565b9050919050565b6000819050919050565b611221836111ec565b61123561122d8261120e565b848454611190565b825550505050565b600090565b61124a61123d565b611255818484611218565b505050565b5b818110156112795761126e600082611242565b60018101905061125b565b5050565b601f8211156112be5761128f8161115e565b61129884611173565b810160208510156112a7578190505b6112bb6112b385611173565b83018261125a565b50505b505050565b600082821c905092915050565b60006112e1600019846008026112c3565b1980831691505092915050565b60006112fa83836112d0565b9150826002028217905092915050565b61131382610be4565b67ffffffffffffffff81111561132c5761132b610da1565b5b61133682546110e8565b61134182828561127d565b600060209050601f8311600181146113745760008415611362578287015190505b61136c85826112ee565b8655506113d4565b601f1984166113828661115e565b60005b828110156113aa57848901518255600182019150602085019450602081019050611385565b868310156113c757848901516113c3601f8916826112d0565b8355505b6001600288020188555050505b505050505050565b7f4e487b7100000000000000000000000000000000000000000000000000000000600052603260045260246000fd5b60008151905061141a81610f4e565b92915050565b60006020828403121561143657611435610d8d565b5b60006114448482850161140b565b91505092915050565b7f4e487b7100000000000000000000000000000000000000000000000000000000600052601160045260246000fd5b600061148782610f44565b91507fffffffffffffffffffffffffffffffffffffffffffffffffffffffffffffffff82036114b9576114b861144d565b5b60018201905091905056fe608060405234801561001057600080fd5b506040516143633803806143638339818101604052810190610032919061037a565b80838381600090816100449190610626565b5080600190816100549190610626565b505050600073ffffffffffffffffffffffffffffffffffffffff168173ffffffffffffffffffffffffffffffffffffffff16036100c95760006040517f1e4fbdf70000000000000000000000000000000000000000000000000000000081526004016100c09190610707565b60405180910390fd5b6100d8816100e160201b60201c565b50505050610722565b6000600a60009054906101000a900473ffffffffffffffffffffffffffffffffffffffff16905081600a60006101000a81548173ffffffffffffffffffffffffffffffffffffffff021916908373ffffffffffffffffffffffffffffffffffffffff1602179055508173ffffffffffffffffffffffffffffffffffffffff168173ffffffffffffffffffffffffffffffffffffffff167f8be0079c531659141344cd1fd0a4f28419497f9722a3daafe3b4186f6b6457e060405160405180910390a35050565b6000604051905090565b600080fd5b600080fd5b600080fd5b600080fd5b6000601f19601f8301169050919050565b7f4e487b7100000000000000000000000000000000000000000000000000000000600052604160045260246000fd5b61020e826101c5565b810181811067ffffffffffffffff8211171561022d5761022c6101d6565b5b80604052505050565b60006102406101a7565b905061024c8282610205565b919050565b600067ffffffffffffffff82111561026c5761026b6101d6565b5b610275826101c5565b9050602081019050919050565b60005b838110156102a0578082015181840152602081019050610285565b60008484015250505050565b60006102bf6102ba84610251565b610236565b9050828152602081018484840111156102db576102da6101c0565b5b6102e6848285610282565b509392505050565b600082601f830112610303576103026101bb565b5b81516103138482602086016102ac565b91505092915050565b600073ffffffffffffffffffffffffffffffffffffffff82169050919050565b60006103478261031c565b9050919050565b6103578161033c565b811461036257600080fd5b50565b6000815190506103748161034e565b92915050565b600080600060608486031215610393576103926101b1565b5b600084015167ffffffffffffffff8111156103b1576103b06101b6565b5b6103bd868287016102ee565b935050602084015167ffffffffffffffff8111156103de576103dd6101b6565b5b6103ea868287016102ee565b92505060406103fb86828701610365565b9150509250925092565b600081519050919050565b7f4e487b7100000000000000000000000000000000000000000000000000000000600052602260045260246000fd5b6000600282049050600182168061045757607f821691505b60208210810361046a57610469610410565b5b50919050565b60008190508160005260206000209050919050565b60006020601f8301049050919050565b600082821b905092915050565b6000600883026104d27fffffffffffffffffffffffffffffffffffffffffffffffffffffffffffffffff82610495565b6104dc8683610495565b95508019841693508086168417925050509392505050565b6000819050919050565b6000819050919050565b600061052361051e610519846104f4565b6104fe565b6104f4565b9050919050565b6000819050919050565b61053d83610508565b6105516105498261052a565b8484546104a2565b825550505050565b600090565b610566610559565b610571818484610534565b505050565b5b818110156105955761058a60008261055e565b600181019050610577565b5050565b601f8211156105da576105ab81610470565b6105b484610485565b810160208510156105c3578190505b6105d76105cf85610485565b830182610576565b50505b505050565b600082821c905092915050565b60006105fd600019846008026105df565b1980831691505092915050565b600061061683836105ec565b9150826002028217905092915050565b61062f82610405565b67ffffffffffffffff811115610648576106476101d6565b5b610652825461043f565b61065d828285610599565b600060209050601f831160018114610690576000841561067e578287015190505b610688858261060a565b8655506106f0565b601f19841661069e86610470565b60005b828110156106c6578489015182556001820191506020850194506020810190506106a1565b868310156106e357848901516106df601f8916826105ec565b8355505b6001600288020188555050505b505050505050565b6107018161033c565b82525050565b600060208201905061071c60008301846106f8565b92915050565b613c32806107316000396000f3fe608060405234801561001057600080fd5b50600436106101cf5760003560e01c8063715018a611610104578063a22cb465116100a2578063d5f40f1611610071578063d5f40f1614610569578063e985e9c514610587578063eacabe14146105b7578063f2fde38b146105d3576101cf565b8063a22cb465146104e5578063ade4f8a214610501578063b88d4fde1461051d578063c87b56dd14610539576101cf565b80638da5cb5b116100de5780638da5cb5b1461044957806395d89b41146104675780639a8d8955146104855780639ac43876146104b5576101cf565b8063715018a6146103ef57806383cde3d2146103f95780638d82404f1461042b576101cf565b806318160ddd1161017157806342842e0e1161014b57806342842e0e146103435780634f6ccce71461035f5780636352211e1461038f57806370a08231146103bf576101cf565b806318160ddd146102d957806323b872dd146102f75780632f745c5914610313576101cf565b8063081812fc116101ad578063081812fc14610240578063095ea7b314610270578063099d5ede1461028c5780630d29640d146102a8576101cf565b806301e9bb91146101d457806301ffc9a7146101f257806306fdde0314610222575b600080fd5b6101dc6105ef565b6040516101e99190612a9f565b60405180910390f35b61020c60048036038101906102079190612b2d565b6106fe565b6040516102199190612b69565b60405180910390f35b61022a610778565b6040516102379190612c14565b60405180910390f35b61025a60048036038101906102559190612c6c565b61080a565b6040516102679190612cda565b60405180910390f35b61028a60048036038101906102859190612d21565b610826565b005b6102a660048036038101906102a19190612e96565b61083c565b005b6102c260048036038101906102bd9190612c6c565b6108be565b6040516102d09291906130a9565b60405180910390f35b6102e1610c98565b6040516102ee91906130ef565b60405180910390f35b610311600480360381019061030c919061310a565b610ca5565b005b61032d60048036038101906103289190612d21565b610da7565b60405161033a91906130ef565b60405180910390f35b61035d6004803603810190610358919061310a565b610e50565b005b61037960048036038101906103749190612c6c565b610e70565b60405161038691906130ef565b60405180910390f35b6103a960048036038101906103a49190612c6c565b610ee6565b6040516103b69190612cda565b60405180910390f35b6103d960048036038101906103d4919061315d565b610ef8565b6040516103e691906130ef565b60405180910390f35b6103f7610fb2565b005b610413600480360381019061040e9190612c6c565b610fc6565b6040516104229392919061318a565b60405180910390f35b610433611078565b60405161044091906130ef565b60405180910390f35b61045161107e565b60405161045e9190612cda565b60405180910390f35b61046f6110a8565b60405161047c9190612c14565b60405180910390f35b61049f600480360381019061049a9190612d21565b61113a565b6040516104ac9190612b69565b60405180910390f35b6104cf60048036038101906104ca9190612c6c565b611169565b6040516104dc9190612c14565b60405180910390f35b6104ff60048036038101906104fa91906131f4565b61120e565b005b61051b60048036038101906105169190612c6c565b611224565b005b610537600480360381019061053291906132d5565b61132c565b005b610553600480360381019061054e9190612c6c565b611351565b6040516105609190612c14565b60405180910390f35b6105716113ba565b60405161057e9190613479565b60405180910390f35b6105a1600480360381019061059c919061349b565b611533565b6040516105ae9190612b69565b60405180910390f35b6105d160048036038101906105cc91906134db565b6115c7565b005b6105ed60048036038101906105e8919061315d565b611617565b005b60606000600d54905060008167ffffffffffffffff81111561061457610613612d6b565b5b6040519080825280602002602001820160405280156106425781602001602082028036833780820191505090505b5090506000600190505b8281116106f557600c60003373ffffffffffffffffffffffffffffffffffffffff1673ffffffffffffffffffffffffffffffffffffffff168152602001908152602001600020600082815260200190815260200160002060009054906101000a900460ff16826001836106bf9190613566565b815181106106d0576106cf61359a565b5b60200260200101901515908115158152505080806106ed906135c9565b91505061064c565b50809250505090565b60007f780e9d63000000000000000000000000000000000000000000000000000000007bffffffffffffffffffffffffffffffffffffffffffffffffffffffff1916827bffffffffffffffffffffffffffffffffffffffffffffffffffffffff1916148061077157506107708261169d565b5b9050919050565b60606000805461078790613640565b80601f01602080910402602001604051908101604052809291908181526020018280546107b390613640565b80156108005780601f106107d557610100808354040283529160200191610800565b820191906000526020600020905b8154815290600101906020018083116107e357829003601f168201915b5050505050905090565b60006108158261177f565b5061081f82611807565b9050919050565b6108388282610833611844565b61184c565b5050565b61084461185e565b600d6000815480929190610857906135c9565b91905055506040518060600160405280600d54815260200182815260200142815250600b6000600d5481526020019081526020016000206000820151816000015560208201518160010190816108ad919061381d565b506040820151816002015590505050565b6060806108c961185e565b60006108d3610c98565b905060008167ffffffffffffffff8111156108f1576108f0612d6b565b5b60405190808252806020026020018201604052801561091f5781602001602082028036833780820191505090505b50905060008267ffffffffffffffff81111561093e5761093d612d6b565b5b60405190808252806020026020018201604052801561097157816020015b606081526020019060019003908161095c5790505b5090506000805b84811015610b2d57600061099760018361099291906138ef565b610ee6565b9050600c60008273ffffffffffffffffffffffffffffffffffffffff1673ffffffffffffffffffffffffffffffffffffffff16815260200190815260200160002060008a815260200190815260200160002060009054906101000a900460ff1615610b1f5780858481518110610a1057610a0f61359a565b5b602002602001019073ffffffffffffffffffffffffffffffffffffffff16908173ffffffffffffffffffffffffffffffffffffffff1681525050600e6000600184610a5b91906138ef565b81526020019081526020016000208054610a7490613640565b80601f0160208091040260200160405190810160405280929190818152602001828054610aa090613640565b8015610aed5780601f10610ac257610100808354040283529160200191610aed565b820191906000526020600020905b815481529060010190602001808311610ad057829003601f168201915b5050505050848481518110610b0557610b0461359a565b5b60200260200101819052508280610b1b906135c9565b9350505b508080600101915050610978565b5060008167ffffffffffffffff811115610b4a57610b49612d6b565b5b604051908082528060200260200182016040528015610b785781602001602082028036833780820191505090505b50905060008267ffffffffffffffff811115610b9757610b96612d6b565b5b604051908082528060200260200182016040528015610bca57816020015b6060815260200190600190039081610bb55790505b50905060005b83811015610c8657858181518110610beb57610bea61359a565b5b6020026020010151838281518110610c0657610c0561359a565b5b602002602001019073ffffffffffffffffffffffffffffffffffffffff16908173ffffffffffffffffffffffffffffffffffffffff1681525050848181518110610c5357610c5261359a565b5b6020026020010151828281518110610c6e57610c6d61359a565b5b60200260200101819052508080600101915050610bd0565b50818197509750505050505050915091565b6000600880549050905090565b600073ffffffffffffffffffffffffffffffffffffffff168273ffffffffffffffffffffffffffffffffffffffff1603610d175760006040517f64a0ae92000000000000000000000000000000000000000000000000000000008152600401610d0e9190612cda565b60405180910390fd5b6000610d2b8383610d26611844565b6118e5565b90508373ffffffffffffffffffffffffffffffffffffffff168173ffffffffffffffffffffffffffffffffffffffff1614610da1578382826040517f64283d7b000000000000000000000000000000000000000000000000000000008152600401610d9893929190613923565b60405180910390fd5b50505050565b6000610db283610ef8565b8210610df75782826040517fa57d13dc000000000000000000000000000000000000000000000000000000008152600401610dee92919061395a565b60405180910390fd5b600660008473ffffffffffffffffffffffffffffffffffffffff1673ffffffffffffffffffffffffffffffffffffffff168152602001908152602001600020600083815260200190815260200160002054905092915050565b610e6b8383836040518060200160405280600081525061132c565b505050565b6000610e7a610c98565b8210610ec0576000826040517fa57d13dc000000000000000000000000000000000000000000000000000000008152600401610eb792919061395a565b60405180910390fd5b60088281548110610ed457610ed361359a565b5b90600052602060002001549050919050565b6000610ef18261177f565b9050919050565b60008073ffffffffffffffffffffffffffffffffffffffff168273ffffffffffffffffffffffffffffffffffffffff1603610f6b5760006040517f89c62b64000000000000000000000000000000000000000000000000000000008152600401610f629190612cda565b60405180910390fd5b600360008373ffffffffffffffffffffffffffffffffffffffff1673ffffffffffffffffffffffffffffffffffffffff168152602001908152602001600020549050919050565b610fba61185e565b610fc46000611a02565b565b600b602052806000526040600020600091509050806000015490806001018054610fef90613640565b80601f016020809104026020016040519081016040528092919081815260200182805461101b90613640565b80156110685780601f1061103d57610100808354040283529160200191611068565b820191906000526020600020905b81548152906001019060200180831161104b57829003601f168201915b5050505050908060020154905083565b600d5481565b6000600a60009054906101000a900473ffffffffffffffffffffffffffffffffffffffff16905090565b6060600180546110b790613640565b80601f01602080910402602001604051908101604052809291908181526020018280546110e390613640565b80156111305780601f1061110557610100808354040283529160200191611130565b820191906000526020600020905b81548152906001019060200180831161111357829003601f168201915b5050505050905090565b600c6020528160005260406000206020528060005260406000206000915091509054906101000a900460ff1681565b6060600e6000838152602001908152602001600020805461118990613640565b80601f01602080910402602001604051908101604052809291908181526020018280546111b590613640565b80156112025780601f106111d757610100808354040283529160200191611202565b820191906000526020600020905b8154815290600101906020018083116111e557829003601f168201915b50505050509050919050565b611220611219611844565b8383611ac8565b5050565b6000811180156112365750600d548111155b611275576040517f08c379a000000000000000000000000000000000000000000000000000000000815260040161126c906139cf565b60405180910390fd5b600061128033610ef8565b116112c0576040517f08c379a00000000000000000000000000000000000000000000000000000000081526004016112b790613a3b565b60405180910390fd5b6001600c60003373ffffffffffffffffffffffffffffffffffffffff1673ffffffffffffffffffffffffffffffffffffffff168152602001908152602001600020600083815260200190815260200160002060006101000a81548160ff02191690831515021790555050565b611337848484610ca5565b61134b611342611844565b85858585611c37565b50505050565b606061135c8261177f565b506000611367611de8565b9050600081511161138757604051806020016040528060008152506113b2565b8061139184611dff565b6040516020016113a2929190613a97565b6040516020818303038152906040525b915050919050565b60606000600d54905060008167ffffffffffffffff8111156113df576113de612d6b565b5b60405190808252806020026020018201604052801561141857816020015b6114056129b4565b8152602001906001900390816113fd5790505b5090506000600190505b82811161152a57600b60008281526020019081526020016000206040518060600160405290816000820154815260200160018201805461146190613640565b80601f016020809104026020016040519081016040528092919081815260200182805461148d90613640565b80156114da5780601f106114af576101008083540402835291602001916114da565b820191906000526020600020905b8154815290600101906020018083116114bd57829003601f168201915b50505050508152602001600282015481525050826001836114fb9190613566565b8151811061150c5761150b61359a565b5b60200260200101819052508080611522906135c9565b915050611422565b50809250505090565b6000600560008473ffffffffffffffffffffffffffffffffffffffff1673ffffffffffffffffffffffffffffffffffffffff16815260200190815260200160002060008373ffffffffffffffffffffffffffffffffffffffff1673ffffffffffffffffffffffffffffffffffffffff16815260200190815260200160002060009054906101000a900460ff16905092915050565b6115cf61185e565b600060016115db610c98565b6115e591906138ef565b90506115f18382611ecd565b81600e60008381526020019081526020016000209081611611919061381d565b50505050565b61161f61185e565b600073ffffffffffffffffffffffffffffffffffffffff168173ffffffffffffffffffffffffffffffffffffffff16036116915760006040517f1e4fbdf70000000000000000000000000000000000000000000000000000000081526004016116889190612cda565b60405180910390fd5b61169a81611a02565b50565b60007f80ac58cd000000000000000000000000000000000000000000000000000000007bffffffffffffffffffffffffffffffffffffffffffffffffffffffff1916827bffffffffffffffffffffffffffffffffffffffffffffffffffffffff1916148061176857507f5b5e139f000000000000000000000000000000000000000000000000000000007bffffffffffffffffffffffffffffffffffffffffffffffffffffffff1916827bffffffffffffffffffffffffffffffffffffffffffffffffffffffff1916145b80611778575061177782611fc6565b5b9050919050565b60008061178b83612030565b9050600073ffffffffffffffffffffffffffffffffffffffff168173ffffffffffffffffffffffffffffffffffffffff16036117fe57826040517f7e2732890000000000000000000000000000000000000000000000000000000081526004016117f591906130ef565b60405180910390fd5b80915050919050565b60006004600083815260200190815260200160002060009054906101000a900473ffffffffffffffffffffffffffffffffffffffff169050919050565b600033905090565b611859838383600161206d565b505050565b611866611844565b73ffffffffffffffffffffffffffffffffffffffff1661188461107e565b73ffffffffffffffffffffffffffffffffffffffff16146118e3576118a7611844565b6040517f118cdaa70000000000000000000000000000000000000000000000000000000081526004016118da9190612cda565b60405180910390fd5b565b6000806118f3858585612232565b9050600073ffffffffffffffffffffffffffffffffffffffff168173ffffffffffffffffffffffffffffffffffffffff1603611937576119328461244c565b611976565b8473ffffffffffffffffffffffffffffffffffffffff168173ffffffffffffffffffffffffffffffffffffffff1614611975576119748185612495565b5b5b600073ffffffffffffffffffffffffffffffffffffffff168573ffffffffffffffffffffffffffffffffffffffff16036119b8576119b384612580565b6119f7565b8473ffffffffffffffffffffffffffffffffffffffff168173ffffffffffffffffffffffffffffffffffffffff16146119f6576119f58585612651565b5b5b809150509392505050565b6000600a60009054906101000a900473ffffffffffffffffffffffffffffffffffffffff16905081600a60006101000a81548173ffffffffffffffffffffffffffffffffffffffff021916908373ffffffffffffffffffffffffffffffffffffffff1602179055508173ffffffffffffffffffffffffffffffffffffffff168173ffffffffffffffffffffffffffffffffffffffff167f8be0079c531659141344cd1fd0a4f28419497f9722a3daafe3b4186f6b6457e060405160405180910390a35050565b600073ffffffffffffffffffffffffffffffffffffffff168273ffffffffffffffffffffffffffffffffffffffff1603611b3957816040517f5b08ba18000000000000000000000000000000000000000000000000000000008152600401611b309190612cda565b60405180910390fd5b80600560008573ffffffffffffffffffffffffffffffffffffffff1673ffffffffffffffffffffffffffffffffffffffff16815260200190815260200160002060008473ffffffffffffffffffffffffffffffffffffffff1673ffffffffffffffffffffffffffffffffffffffff16815260200190815260200160002060006101000a81548160ff0219169083151502179055508173ffffffffffffffffffffffffffffffffffffffff168373ffffffffffffffffffffffffffffffffffffffff167f17307eab39ab6107e8899845ad3d59bd9653f200f220920489ca2b5937696c3183604051611c2a9190612b69565b60405180910390a3505050565b60008373ffffffffffffffffffffffffffffffffffffffff163b1115611de1578273ffffffffffffffffffffffffffffffffffffffff1663150b7a02868685856040518563ffffffff1660e01b8152600401611c969493929190613b10565b6020604051808303816000875af1925050508015611cd257506040513d601f19601f82011682018060405250810190611ccf9190613b71565b60015b611d56573d8060008114611d02576040519150601f19603f3d011682016040523d82523d6000602084013e611d07565b606091505b506000815103611d4e57836040517f64a0ae92000000000000000000000000000000000000000000000000000000008152600401611d459190612cda565b60405180910390fd5b805181602001fd5b63150b7a0260e01b7bffffffffffffffffffffffffffffffffffffffffffffffffffffffff1916817bffffffffffffffffffffffffffffffffffffffffffffffffffffffff191614611ddf57836040517f64a0ae92000000000000000000000000000000000000000000000000000000008152600401611dd69190612cda565b60405180910390fd5b505b5050505050565b606060405180602001604052806000815250905090565b606060006001611e0e846126dc565b01905060008167ffffffffffffffff811115611e2d57611e2c612d6b565b5b6040519080825280601f01601f191660200182016040528015611e5f5781602001600182028036833780820191505090505b509050600082602001820190505b600115611ec2578080600190039150507f3031323334353637383961626364656600000000000000000000000000000000600a86061a8153600a8581611eb657611eb5613b9e565b5b04945060008503611e6d575b819350505050919050565b600073ffffffffffffffffffffffffffffffffffffffff168273ffffffffffffffffffffffffffffffffffffffff1603611f3f5760006040517f64a0ae92000000000000000000000000000000000000000000000000000000008152600401611f369190612cda565b60405180910390fd5b6000611f4d838360006118e5565b9050600073ffffffffffffffffffffffffffffffffffffffff168173ffffffffffffffffffffffffffffffffffffffff1614611fc15760006040517f73c6ac6e000000000000000000000000000000000000000000000000000000008152600401611fb89190612cda565b60405180910390fd5b505050565b60007f01ffc9a7000000000000000000000000000000000000000000000000000000007bffffffffffffffffffffffffffffffffffffffffffffffffffffffff1916827bffffffffffffffffffffffffffffffffffffffffffffffffffffffff1916149050919050565b60006002600083815260200190815260200160002060009054906101000a900473ffffffffffffffffffffffffffffffffffffffff169050919050565b80806120a65750600073ffffffffffffffffffffffffffffffffffffffff168273ffffffffffffffffffffffffffffffffffffffff1614155b156121da5760006120b68461177f565b9050600073ffffffffffffffffffffffffffffffffffffffff168373ffffffffffffffffffffffffffffffffffffffff161415801561212157508273ffffffffffffffffffffffffffffffffffffffff168173ffffffffffffffffffffffffffffffffffffffff1614155b801561213457506121328184611533565b155b1561217657826040517fa9fbf51f00000000000000000000000000000000000000000000000000000000815260040161216d9190612cda565b60405180910390fd5b81156121d857838573ffffffffffffffffffffffffffffffffffffffff168273ffffffffffffffffffffffffffffffffffffffff167f8c5be1e5ebec7d5bd14f71427d1e84f3dd0314c0f7b2291e5b200ac8c7c3b92560405160405180910390a45b505b836004600085815260200190815260200160002060006101000a81548173ffffffffffffffffffffffffffffffffffffffff021916908373ffffffffffffffffffffffffffffffffffffffff16021790555050505050565b60008061223e84612030565b9050600073ffffffffffffffffffffffffffffffffffffffff168373ffffffffffffffffffffffffffffffffffffffff16146122805761227f81848661282f565b5b600073ffffffffffffffffffffffffffffffffffffffff168173ffffffffffffffffffffffffffffffffffffffff1614612311576122c260008560008061206d565b6001600360008373ffffffffffffffffffffffffffffffffffffffff1673ffffffffffffffffffffffffffffffffffffffff168152602001908152602001600020600082825403925050819055505b600073ffffffffffffffffffffffffffffffffffffffff168573ffffffffffffffffffffffffffffffffffffffff1614612394576001600360008773ffffffffffffffffffffffffffffffffffffffff1673ffffffffffffffffffffffffffffffffffffffff168152602001908152602001600020600082825401925050819055505b846002600086815260200190815260200160002060006101000a81548173ffffffffffffffffffffffffffffffffffffffff021916908373ffffffffffffffffffffffffffffffffffffffff160217905550838573ffffffffffffffffffffffffffffffffffffffff168273ffffffffffffffffffffffffffffffffffffffff167fddf252ad1be2c89b69c2b068fc378daa952ba7f163c4a11628f55a4df523b3ef60405160405180910390a4809150509392505050565b6008805490506009600083815260200190815260200160002081905550600881908060018154018082558091505060019003906000526020600020016000909190919091505550565b60006124a083610ef8565b90506000600760008481526020019081526020016000205490506000600660008673ffffffffffffffffffffffffffffffffffffffff1673ffffffffffffffffffffffffffffffffffffffff168152602001908152602001600020905082821461254c5760008160008581526020019081526020016000205490508082600085815260200190815260200160002081905550826007600083815260200190815260200160002081905550505b6007600085815260200190815260200160002060009055806000848152602001908152602001600020600090555050505050565b600060016008805490506125949190613566565b90506000600960008481526020019081526020016000205490506000600883815481106125c4576125c361359a565b5b9060005260206000200154905080600883815481106125e6576125e561359a565b5b90600052602060002001819055508160096000838152602001908152602001600020819055506009600085815260200190815260200160002060009055600880548061263557612634613bcd565b5b6001900381819060005260206000200160009055905550505050565b6000600161265e84610ef8565b6126689190613566565b905081600660008573ffffffffffffffffffffffffffffffffffffffff1673ffffffffffffffffffffffffffffffffffffffff168152602001908152602001600020600083815260200190815260200160002081905550806007600084815260200190815260200160002081905550505050565b600080600090507a184f03e93ff9f4daa797ed6e38ed64bf6a1f010000000000000000831061273a577a184f03e93ff9f4daa797ed6e38ed64bf6a1f01000000000000000083816127305761272f613b9e565b5b0492506040810190505b6d04ee2d6d415b85acef81000000008310612777576d04ee2d6d415b85acef8100000000838161276d5761276c613b9e565b5b0492506020810190505b662386f26fc1000083106127a657662386f26fc10000838161279c5761279b613b9e565b5b0492506010810190505b6305f5e10083106127cf576305f5e10083816127c5576127c4613b9e565b5b0492506008810190505b61271083106127f45761271083816127ea576127e9613b9e565b5b0492506004810190505b60648310612817576064838161280d5761280c613b9e565b5b0492506002810190505b600a8310612826576001810190505b80915050919050565b61283a8383836128f3565b6128ee57600073ffffffffffffffffffffffffffffffffffffffff168373ffffffffffffffffffffffffffffffffffffffff16036128af57806040517f7e2732890000000000000000000000000000000000000000000000000000000081526004016128a691906130ef565b60405180910390fd5b81816040517f177e802f0000000000000000000000000000000000000000000000000000000081526004016128e592919061395a565b60405180910390fd5b505050565b60008073ffffffffffffffffffffffffffffffffffffffff168373ffffffffffffffffffffffffffffffffffffffff16141580156129ab57508273ffffffffffffffffffffffffffffffffffffffff168473ffffffffffffffffffffffffffffffffffffffff16148061296c575061296b8484611533565b5b806129aa57508273ffffffffffffffffffffffffffffffffffffffff1661299283611807565b73ffffffffffffffffffffffffffffffffffffffff16145b5b90509392505050565b60405180606001604052806000815260200160608152602001600081525090565b600081519050919050565b600082825260208201905092915050565b6000819050602082019050919050565b60008115159050919050565b612a1681612a01565b82525050565b6000612a288383612a0d565b60208301905092915050565b6000602082019050919050565b6000612a4c826129d5565b612a5681856129e0565b9350612a61836129f1565b8060005b83811015612a92578151612a798882612a1c565b9750612a8483612a34565b925050600181019050612a65565b5085935050505092915050565b60006020820190508181036000830152612ab98184612a41565b905092915050565b6000604051905090565b600080fd5b600080fd5b60007fffffffff0000000000000000000000000000000000000000000000000000000082169050919050565b612b0a81612ad5565b8114612b1557600080fd5b50565b600081359050612b2781612b01565b92915050565b600060208284031215612b4357612b42612acb565b5b6000612b5184828501612b18565b91505092915050565b612b6381612a01565b82525050565b6000602082019050612b7e6000830184612b5a565b92915050565b600081519050919050565b600082825260208201905092915050565b60005b83811015612bbe578082015181840152602081019050612ba3565b60008484015250505050565b6000601f19601f8301169050919050565b6000612be682612b84565b612bf08185612b8f565b9350612c00818560208601612ba0565b612c0981612bca565b840191505092915050565b60006020820190508181036000830152612c2e8184612bdb565b905092915050565b6000819050919050565b612c4981612c36565b8114612c5457600080fd5b50565b600081359050612c6681612c40565b92915050565b600060208284031215612c8257612c81612acb565b5b6000612c9084828501612c57565b91505092915050565b600073ffffffffffffffffffffffffffffffffffffffff82169050919050565b6000612cc482612c99565b9050919050565b612cd481612cb9565b82525050565b6000602082019050612cef6000830184612ccb565b92915050565b612cfe81612cb9565b8114612d0957600080fd5b50565b600081359050612d1b81612cf5565b92915050565b60008060408385031215612d3857612d37612acb565b5b6000612d4685828601612d0c565b9250506020612d5785828601612c57565b9150509250929050565b600080fd5b600080fd5b7f4e487b7100000000000000000000000000000000000000000000000000000000600052604160045260246000fd5b612da382612bca565b810181811067ffffffffffffffff82111715612dc257612dc1612d6b565b5b80604052505050565b6000612dd5612ac1565b9050612de18282612d9a565b919050565b600067ffffffffffffffff821115612e0157612e00612d6b565b5b612e0a82612bca565b9050602081019050919050565b82818337600083830152505050565b6000612e39612e3484612de6565b612dcb565b905082815260208101848484011115612e5557612e54612d66565b5b612e60848285612e17565b509392505050565b600082601f830112612e7d57612e7c612d61565b5b8135612e8d848260208601612e26565b91505092915050565b600060208284031215612eac57612eab612acb565b5b600082013567ffffffffffffffff811115612eca57612ec9612ad0565b5b612ed684828501612e68565b91505092915050565b600081519050919050565b600082825260208201905092915050565b6000819050602082019050919050565b612f1481612cb9565b82525050565b6000612f268383612f0b565b60208301905092915050565b6000602082019050919050565b6000612f4a82612edf565b612f548185612eea565b9350612f5f83612efb565b8060005b83811015612f90578151612f778882612f1a565b9750612f8283612f32565b925050600181019050612f63565b5085935050505092915050565b600081519050919050565b600082825260208201905092915050565b6000819050602082019050919050565b600082825260208201905092915050565b6000612fe582612b84565b612fef8185612fc9565b9350612fff818560208601612ba0565b61300881612bca565b840191505092915050565b600061301f8383612fda565b905092915050565b6000602082019050919050565b600061303f82612f9d565b6130498185612fa8565b93508360208202850161305b85612fb9565b8060005b8581101561309757848403895281516130788582613013565b945061308383613027565b925060208a0199505060018101905061305f565b50829750879550505050505092915050565b600060408201905081810360008301526130c38185612f3f565b905081810360208301526130d78184613034565b90509392505050565b6130e981612c36565b82525050565b600060208201905061310460008301846130e0565b92915050565b60008060006060848603121561312357613122612acb565b5b600061313186828701612d0c565b935050602061314286828701612d0c565b925050604061315386828701612c57565b9150509250925092565b60006020828403121561317357613172612acb565b5b600061318184828501612d0c565b91505092915050565b600060608201905061319f60008301866130e0565b81810360208301526131b18185612bdb565b90506131c060408301846130e0565b949350505050565b6131d181612a01565b81146131dc57600080fd5b50565b6000813590506131ee816131c8565b92915050565b6000806040838503121561320b5761320a612acb565b5b600061321985828601612d0c565b925050602061322a858286016131df565b9150509250929050565b600067ffffffffffffffff82111561324f5761324e612d6b565b5b61325882612bca565b9050602081019050919050565b600061327861327384613234565b612dcb565b90508281526020810184848401111561329457613293612d66565b5b61329f848285612e17565b509392505050565b600082601f8301126132bc576132bb612d61565b5b81356132cc848260208601613265565b91505092915050565b600080600080608085870312156132ef576132ee612acb565b5b60006132fd87828801612d0c565b945050602061330e87828801612d0c565b935050604061331f87828801612c57565b925050606085013567ffffffffffffffff8111156133405761333f612ad0565b5b61334c878288016132a7565b91505092959194509250565b600081519050919050565b600082825260208201905092915050565b6000819050602082019050919050565b61338d81612c36565b82525050565b60006060830160008301516133ab6000860182613384565b50602083015184820360208601526133c38282612fda565b91505060408301516133d86040860182613384565b508091505092915050565b60006133ef8383613393565b905092915050565b6000602082019050919050565b600061340f82613358565b6134198185613363565b93508360208202850161342b85613374565b8060005b85811015613467578484038952815161344885826133e3565b9450613453836133f7565b925060208a0199505060018101905061342f565b50829750879550505050505092915050565b600060208201905081810360008301526134938184613404565b905092915050565b600080604083850312156134b2576134b1612acb565b5b60006134c085828601612d0c565b92505060206134d185828601612d0c565b9150509250929050565b600080604083850312156134f2576134f1612acb565b5b600061350085828601612d0c565b925050602083013567ffffffffffffffff81111561352157613520612ad0565b5b61352d85828601612e68565b9150509250929050565b7f4e487b7100000000000000000000000000000000000000000000000000000000600052601160045260246000fd5b600061357182612c36565b915061357c83612c36565b925082820390508181111561359457613593613537565b5b92915050565b7f4e487b7100000000000000000000000000000000000000000000000000000000600052603260045260246000fd5b60006135d482612c36565b91507fffffffffffffffffffffffffffffffffffffffffffffffffffffffffffffffff820361360657613605613537565b5b600182019050919050565b7f4e487b7100000000000000000000000000000000000000000000000000000000600052602260045260246000fd5b6000600282049050600182168061365857607f821691505b60208210810361366b5761366a613611565b5b50919050565b60008190508160005260206000209050919050565b60006020601f8301049050919050565b600082821b905092915050565b6000600883026136d37fffffffffffffffffffffffffffffffffffffffffffffffffffffffffffffffff82613696565b6136dd8683613696565b95508019841693508086168417925050509392505050565b6000819050919050565b600061371a61371561371084612c36565b6136f5565b612c36565b9050919050565b6000819050919050565b613734836136ff565b61374861374082613721565b8484546136a3565b825550505050565b600090565b61375d613750565b61376881848461372b565b505050565b5b8181101561378c57613781600082613755565b60018101905061376e565b5050565b601f8211156137d1576137a281613671565b6137ab84613686565b810160208510156137ba578190505b6137ce6137c685613686565b83018261376d565b50505b505050565b600082821c905092915050565b60006137f4600019846008026137d6565b1980831691505092915050565b600061380d83836137e3565b9150826002028217905092915050565b61382682612b84565b67ffffffffffffffff81111561383f5761383e612d6b565b5b6138498254613640565b613854828285613790565b600060209050601f8311600181146138875760008415613875578287015190505b61387f8582613801565b8655506138e7565b601f19841661389586613671565b60005b828110156138bd57848901518255600182019150602085019450602081019050613898565b868310156138da57848901516138d6601f8916826137e3565b8355505b6001600288020188555050505b505050505050565b60006138fa82612c36565b915061390583612c36565b925082820190508082111561391d5761391c613537565b5b92915050565b60006060820190506139386000830186612ccb565b61394560208301856130e0565b6139526040830184612ccb565b949350505050565b600060408201905061396f6000830185612ccb565b61397c60208301846130e0565b9392505050565b7f4c65637475726520646f6573206e6f7420657869737400000000000000000000600082015250565b60006139b9601683612b8f565b91506139c482613983565b602082019050919050565b600060208201905081810360008301526139e8816139ac565b9050919050565b7f596f7520646f206e6f7420686f6c6420746865204e4654000000000000000000600082015250565b6000613a25601783612b8f565b9150613a30826139ef565b602082019050919050565b60006020820190508181036000830152613a5481613a18565b9050919050565b600081905092915050565b6000613a7182612b84565b613a7b8185613a5b565b9350613a8b818560208601612ba0565b80840191505092915050565b6000613aa38285613a66565b9150613aaf8284613a66565b91508190509392505050565b600081519050919050565b600082825260208201905092915050565b6000613ae282613abb565b613aec8185613ac6565b9350613afc818560208601612ba0565b613b0581612bca565b840191505092915050565b6000608082019050613b256000830187612ccb565b613b326020830186612ccb565b613b3f60408301856130e0565b8181036060830152613b518184613ad7565b905095945050505050565b600081519050613b6b81612b01565b92915050565b600060208284031215613b8757613b86612acb565b5b6000613b9584828501613b5c565b91505092915050565b7f4e487b7100000000000000000000000000000000000000000000000000000000600052601260045260246000fd5b7f4e487b7100000000000000000000000000000000000000000000000000000000600052603160045260246000fdfea2646970667358221220b6b03fe3f9003543ca02d9126de48c743a6bc87c98f9e71053ca232ec4a77a5e64736f6c634300081c0033a2646970667358221220dca21b592d47a439d95ed1cee9324150a2a7f4d926904aa44147cfad7387744664736f6c634300081c0033",
  "linkReferences": {},
  "deployedLinkReferences": {}
}